:020000040000FA
:060000000A128A110C280F
:10000800FE00030EF2000A08F3000A128A11982D66
:100018000A128A110F28F601F701F801F901831372
:100028004230840062300A128A11D0260A128A11DC
:1000380083010A128A110F2B83120313BE003E0894
:10004800BB00BB0DBB0D1F083B06C3393B069F0019
:100058009F182F28302880283E08031D342835286B
:1000680080280530A2000030A3006108BB00BC0155
:100078003B08A0003C08A1000A128A11F3250A12C5
:100088008A11831203132108A7002008A600FF3055
:10009800A4000030A5000A128A1195230A128A11B9
:1000A800831203132408AD002508AE000030AE1BF0
:1000B800FF30AF00B00001300A128A113C210A1249
:1000C8008A11831203133008C9002F08C8002E08AC
:1000D800C7002D08C600A101A10A02300A128A1120
:1000E8001A260A128A110A128A1187220A128A11FA
:1000F800831203139F143B290530A2000030A3008C
:100108006008BB00BC013B08A0003C08A1000A1223
:100118008A11F3250A128A11831203132108A700F2
:100128002008A600FF30A4000030A5000A128A119A
:1001380095230A128A11831203132408AD00250897
:10014800AE000030AE1BFF30AF00B00001300A1225
:100158008A113C210A128A11831203133008C50040
:100168002F08C4002E08C3002D08C2000730BB00AA
:100178003B08A10002300A128A111A260A128A11B3
:100188000A128A11F8210A128A11831203139F1482
:100198000A128A1140260A128A110A30831203139E
:1001A80055020318D828D928ED280E30BB003B0883
:1001B800A10002300A128A111A260A128A11831221
:1001C80003135508303E0A128A119C260A128A1116
:1001D8003B290A305502031CF228F3283B290A3030
:1001E800A4000030A5005508BB00BC013B08A600D0
:1001F8003C08A7000A128A1195230A128A11831251
:1002080003132408BD003D08D2000A30A0000030C6
:10021800A1005508BB00BC013B08A2003C08A30094
:100228000A128A11FE230A128A1183120313200864
:10023800BD003D08D1000D30BB003B08A1000230D5
:100248000A128A111A260A128A11831203135208F3
:10025800303E0A128A119C260A128A11831203134D
:100268005108303E0A128A119C260A128A11080087
:1002780083120313B5003508031943294429582963
:10028800B01F4729482958292D09B7002E09B80059
:100298002F09B9003009BA00B70A0319B80A0319B7
:1002A800B90A0319BA0A60293008BA002F08B90038
:1002B8002E08B8002D08B70030082F042E042D048E
:1002C800031D6729682971290030B0000030AF008C
:1002D8000030AE000030AD00F7299630B10031088B
:1002E800B60083290130B1003108B6070130031088
:1002F800BA0CB90CB80CB70CFF3E031D7B29FE30B5
:100308003A05031D882989297629A5290130B100D4
:100318003108B6070130B707003003180130B807B5
:10032800003003180130B907003003180130BA074C
:1003380001300310BA0CB90CB80CB70CFF3E031D02
:100348009D29FF303A05031DAA29AB298A29B72917
:100358000130B6020130B1000310B70DB80DB90D68
:10036800BA0DB10BB029B91BBA29BB29C129023072
:1003780036020318C029C129AC293618C429C52951
:10038800CD29FF30B705FF30B8057F30B905FF30FC
:10039800BA050310B60C3608B100B201B301B401B6
:1003A80018300310B10DB20DB30DB40DFF3E031D8F
:1003B800D5293108B7043208B8043308B904340819
:1003C800BA0435080319E929EA29EF29B01FED29EC
:1003D800EE29EF29BA173A08B0003908AF003808F3
:1003E800AE003708AD000800643083120313A40080
:1003F8000030A5006008AD00AE0103102D0DA60069
:100408002E0DA7000A128A1195230A128A11831247
:1004180003132408AF002F08F6006430A000003052
:10042800A1007608AD00AE012D08A2002E08A30099
:100438000A128A11FE230A128A1183120313200852
:10044800AF002F08DC000A30A4000030A5005C08CB
:10045800AD00AE012D08A6002E08A7000A128A11C9
:1004680095230A128A11831203132408AF002F0858
:10047800DB000A30A0000030A1005C08AD00AE012E
:100488002D08A2002E08A3000A128A11FE230A12C0
:100498008A11831203132008AF002F08DA005A08C4
:1004A800AD002D08D9007608303E0A128A119C2624
:1004B8000A128A112E300A128A119C260A128A11EF
:1004C800831203135B08303E0A128A119C260A1213
:1004D8008A11831203135908303E0A128A119C2686
:1004E8000A128A1156300A128A119C260A128A1197
:1004F8000A128A11A8240A128A110A128A11592486
:100508000A128A110800643083120313A400003011
:10051800A5006108AD00AE0103102D0DA6002E0D3B
:10052800A7000A128A1195230A128A11831203134B
:100538002408AF002F08F9006430A0000030A100A3
:100548007908AD00AE012D08A2002E08A3000A12FA
:100558008A11FE230A128A11831203132008AF009E
:100568002F08F8000A30A4000030A5007808AD0074
:10057800AE012D08A6002E08A7000A128A1195239D
:100588000A128A11831203132408AF002F08F700F8
:100598000A30A0000030A1007808AD00AE012D0897
:1005A800A2002E08A3000A128A11FE230A128A1139
:1005B800831203132008AF002F08DE005E08AD0089
:1005C8002D08DD007908303E0A128A119C260A128D
:1005D8008A112E300A128A119C260A128A1177086B
:1005E800303E0A128A119C260A128A1183120313BA
:1005F8005D08303E0A128A119C260A128A1156306A
:100608000A128A119C260A128A110A128A11EC24EB
:100618000A128A1108000A128A115C260A128A1123
:100628000A128A112E250A128A1183120313A101B4
:10063800A10A01300A128A111A260A128A110E30EA
:100648000A128A11CA250A128A1183120313A101F8
:10065800A10A02300A128A111A260A128A110130D6
:100668000A128A11CA250A128A1102308312031348
:10067800C1002530C0003130BF00BF0B412BC00B7B
:10068800412BC10B412B0A128A11AC260A128A117E
:1006980083120313A101A10A01300A128A111A2632
:1006A8000A128A1121300A128A11CA250A128A11DD
:1006B800073083120313BF003F08A10001300A125C
:1006C8008A111A260A128A1127300A128A11CA2593
:1006D8000A128A110D3083120313BF003F08A100CC
:1006E80001300A128A111A260A128A1118300A12BF
:1006F8008A11CA250A128A110A128A11D8260A12E0
:100708008A1101300A128A1120200A128A11003037
:100718000A128A1120200A128A11852B0A128A11BC
:100728000C2883120313AA01A51F9B2B9C2BA32B18
:10073800A409A509A40A0319A50AAA01AA0AA71FB8
:10074800A62BA72BB02BA609A709A60A0319A70A47
:100758000130A8002808AA06AB01AC01240825042A
:100768000319B72BB82BEF2BA901A90AC62B013007
:100778000310A40DA50DFF3E031DBC2B0130A800DE
:100788002808A907A51FC92BCA2BBB2B01300310AA
:10079800AB0DAC0DFF3E031DCB2B25082702031D17
:1007A800D72B24082602031CDA2BDB2BE22B240888
:1007B800A6022508031CA703A7022B140130031067
:1007C800A50CA40CFF3E031DE32B0130A902031D59
:1007D800EE2BEF2BCA2B2A080319F32BF42BF92B3A
:1007E800AB09AC09AB0A0319AC0A2C08A5002B0805
:1007F800A400080083120313A501A31F042C052CD1
:100808000C2CA209A309A20A0319A30AA501A50A87
:10081800A11F0F2C102C152CA009A109A00A03193F
:10082800A10A2008210403191A2C1B2C4A2CA40104
:10083800A40A292C01300310A00DA10DFF3E031DB1
:100848001F2C0130F4007408A407A11F2C2C2D2C98
:100858001E2C21082302031D332C20082202031C0E
:10086800362C372C3D2C2008A2022108031CA30398
:10087800A30201300310A10CA00CFF3E031D3E2C67
:100888000130A402031D492C4A2C2D2C25080319DC
:100898004E2C4F2C542CA209A309A20A0319A30A0F
:1008A8002308A1002208A00008000A3083120313BD
:1008B80055020318602C612C832C43300A128A11CC
:1008C800C6260A128A113A300A128A11C6260A1254
:1008D8008A1130300A128A11C6260A128A11831226
:1008E80003135508303E0A128A11C6260A128A11C5
:1008F8000D300A128A11C6260A128A11A72C433013
:100908000A128A11C6260A128A113A300A128A1164
:10091800C6260A128A11831203135208303E0A129D
:100928008A11C6260A128A11831203135108303E0F
:100938000A128A11C6260A128A110D300A128A1161
:10094800C6260A128A11080053300A128A11C626CE
:100958000A128A1132300A128A11C6260A128A111C
:100968003A300A128A11C6260A128A117608303ECF
:100978000A128A11C6260A128A112E300A128A1100
:10098800C6260A128A11831203135B08303E0A1224
:100998008A11C6260A128A11831203135908303E97
:1009A8000A128A11C6260A128A1156300A128A11A8
:1009B800C6260A128A1120300A128A11C6260A127D
:1009C8008A1120300A128A11C6260A128A110800D2
:1009D80053300A128A11C6260A128A1131300A12B5
:1009E8008A11C6260A128A113A300A128A11C626B4
:1009F8000A128A117908303E0A128A11C6260A128A
:100A08008A112E300A128A11C6260A128A1177080C
:100A1800303E0A128A11C6260A128A11831203135B
:100A28005D08303E0A128A11C6260A128A1156300B
:100A38000A128A11C6260A128A1120300A128A114D
:100A4800C6260A128A1120300A128A11C6260A12EC
:100A58008A11080083120313081100300A128A1140
:100A680077260A128A112C3083120313A200D3307E
:100A7800A100A10B3D2DA20B3D2D30300A128A1189
:100A880077260A128A11773083120313A100A10B6B
:100A98004B2D38300A128A1177260A128A110D3026
:100AA8000A128A1177260A128A1101300A128A114B
:100AB80077260A128A1106300A128A1177260A1234
:100AC8008A11080005308A000408840A8207003465
:100AD8005234413455344C345F34413447345534FE
:100AE80049344C3441345234003444344934473462
:100AF8004934543441344C3420343234003443348F
:100B08006F346E347434613464346F347234003446
:100B180056346F346C3474343134003456346F3492
:100B28006C34743432340034831203138C1D9D2DBD
:100B38009E2DA72D61080A128A11DE260A128A1133
:100B4800831203138C110C1FAA2DAB2DB42D0C137B
:100B58001E08F1007108E1001E08F1007108E000AC
:100B68008C1EB72DB82DC32D0A128A11B9260A1268
:100B78008A11F100710883120313D4008C127308D0
:100B88008A00720E8300FE0E7E0E09008312031384
:100B9800A200A001A101E52D2008220784000A1265
:100BA8008A1166250A128A110A128A119C260A12CB
:100BB8008A11013083120313A0070318A10A003019
:100BC800A1072008220784000A128A1166250A1242
:100BD8008A11003A031DF12DF22DD02D0800F401E1
:100BE800F50183120313201CFA2DFB2D012E220878
:100BF800F4070318F50A2308F50701300310A20DBE
:100C0800A30DFF3E031D022E01300310A10CA00C02
:100C1800FF3E031D092E20082104031D142E152E46
:100C2800F52D7508A1007408A000080083120313AD
:100C3800A3002303031D212E222E2E2E21087F3EE2
:100C4800A2002208A40024080A128A1177260A1290
:100C58008A113F2E02302306031D332E342E3F2ED9
:100C68002108BF3EA2002208A40024080A128A1103
:100C780077260A128A1108002B30831203135406B0
:100C8800031D472E482E4F2E5508013EF4007408C8
:100C9800D500D4015B2E2D305406031D542E552E3D
:100CA8005B2E5508FF3EF4007408D5004D2E080051
:100CB80083160317880189010330831603138500FF
:100CC80086018801831603170814881483120313F6
:100CD8001F14831603139F138B170B170C178312FC
:100CE80003130C13080083120313A0000811200833
:100CF800860088150C30F500AF30F400F40B822E16
:100D0800F50B822E831203138811080039308316DD
:100D180003139900981318139816181218158312AC
:100D2800031398171813981218168C120C1208002F
:100D3800F5008312031308157508860088151D3001
:100D4800F400F40BA52EA82E8312031388110800B3
:100D580000300A128A1177260A128A1101300A1203
:100D68008A1177260A128A11080083120313981829
:100D7800BE2EBF2EC42E181200008312031318169D
:100D88001A080800F40074088312031399000C1E53
:100D9800CE2ECF2ECB2E080064008001840A0406D4
:100DA800031900340406D12E0A128A118A260A125F
:100DB8008A110800F00070088312031393000800DA
:04400E00D420FF3F7C
:00000001FF
