:020000040000FA
:060000000A128A1110280B
:10000800FE00030E83120313C8000408C9000A087F
:10001800CA000A128A118C290A128A11132883131A
:100028004030FD000130FE00DB30FF00203084004E
:100038000A128A11FF210A128A11C001C101C201E4
:10004800C301C401C501C601C70183010A128A118F
:100058000E2AF601F11F312832283928F009F10952
:10006800F00A0319F10AF601F60AF31F3C283D28A5
:100078004628F209F309F20A0319F30A0130F400D9
:100088007408F606F701F8017008710403194D2881
:100098004E288528F501F50A5C2801300310F00D7B
:1000A800F10DFF3E031D52280130F4007408F507D6
:1000B800F11F5F286028512801300310F70DF80D53
:1000C800FF3E031D612871087302031D6D28700827
:1000D8007202031C7028712878287008F2027108CF
:1000E800031CF303F302771401300310F10CF00C36
:1000F800FF3E031D79280130F502031D8428852859
:1001080060287608031989288A288F28F709F809AA
:10011800F70A0319F80A7808F1007708F0000800D0
:10012800831603130F088F3960388F008F110F1152
:100138008F100F108316031788012030890083164B
:100148000313850123308600870188018901831202
:100158000313850186018701880189011F179F13F1
:100168001F159F111F169F161F14831603139F1721
:100178001F129F12831203139F10831603138117F4
:1001880001138112011281110108F8390238810026
:1001980002308312031381008B178B160B11831601
:1001A80003130C17831203130C130B170B108B1567
:1001B800831603131614961483120313C501C6017C
:1001C800081108108810C301C401C701080083166C
:1001D80003131E088312031345020318F428F52895
:1001E800F6280815831603131E0883120313450205
:1001F800031CFF280029012908119F141A308312B3
:100208000313CC00F730CB00CB0B0829CC0B082903
:100218000D29831203139F1812291329EB2883161B
:1002280003131E0883120313CB004B08C400831664
:1002380003131E0883120313CB004B08C300EB28DB
:10024800080083120313061C2A292B292E29C10111
:10025800C10A8B1306183129322942294103031D8B
:10026800362937294229C1010130F0007008C20738
:100278004208F0007008C5008B175A29861C4529CA
:1002880046294929C001C00A8B1386184C294D29D3
:100298005A294003031D512952295A29C001013006
:1002A800C2024208F0007008C5008B1708000A1245
:1002B8008A11B9210A128A118312031308108810AF
:1002C8004703031D6829692975294408FC007C082F
:1002D800FD007D08303E8400831300088700081461
:1002E80088104708031D79297A2986294308FC00C4
:1002F8007C08FD007D08203E8400831300088700E9
:10030800881408100A128A111B220A128A1108007E
:100318000B1D8F2990299D290A128A115B210A1227
:100328008A110B11023083120313810045088500DE
:10033800AE290B1CA029A129A9290B108B130A127D
:100348008A1125210A128A11AE290C1FAC29AD2960
:10035800AE290C13831203134A088A004908840043
:10036800480E8300FE0E7E0E09001030F0000030AB
:10037800F100831603131E08F900FA017908F20048
:100388007A08F3000A128A112D200A128A117008BD
:10039800FB007B0883120313C400831603131E0893
:1003A8000F39F900790883120313C30008003F349A
:1003B80006345B344F3466346D347D3407347F340F
:1003C8006F3477347C3439345E34793471343F3463
:1003D80006345B344F3466346D347D3407347F34EF
:1003E8006F3477347C3439345E34793471347E0830
:1003F8008A007F0882000A128A11FB210A128A11D8
:100408008000840A04087D0603190034FF0A0319D2
:10041800FE0AFF290A128A1194200A128A110A1266
:100428008A11EB200A128A110A128A1110288312E3
:1004380003134703031D212A222A242AC701262A37
:06044800C701C70A08000D
:04400E00D420FF3F7C
:00000001FF
