:020000040000FA
:060000000A128A110C280F
:10000800FE00030EF1000A08F2000A128A11092EF6
:100018000A128A110F28F801F901FA0183133F30F7
:1000280084005A300A128A11BE260A128A118301E4
:100038000A128A11102B83120313BB003B08B80065
:10004800B80DB80D1F083806C33938069F009F1829
:100058002E282F287F283B08031D332834287F2883
:100068000530F5000030F6005908B800B901380825
:10007800F3003908F4000A128A1193250A128A112A
:10008800740883120313A5007308A400FF30A200AC
:100098000030A3000A128A1190230A128A118312CF
:1000A80003132208AA002308AB000030AB1BFF3063
:1000B800AC00AD0001300A128A113B210A128A11E4
:1000C800831203132D08C6002C08C5002B08C40092
:1000D8002A08C300F601F60A02300A128A11BE2560
:1000E8000A128A110A128A1186220A128A118312A6
:1000F80003139F143A290530F5000030F60058081C
:10010800B800B9013808F3003908F4000A128A1156
:1001180093250A128A11740883120313A500730821
:10012800A400FF30A2000030A3000A128A11902315
:100138000A128A11831203132208AA002308AB00AB
:100148000030AB1BFF30AC00AD0001300A128A1141
:100158003B210A128A11831203132D08C2002C08AE
:10016800C1002B08C0002A08BF000730B8003808B3
:10017800F60002300A128A11BE250A128A110A12E2
:100188008A11F7210A128A11831203139F140A1283
:100198008A112E260A128A110A30831203134C027E
:1001A8000318D728D828EC280E30B8003808F600ED
:1001B80002300A128A11BE250A128A118312031309
:1001C8004C08303E0A128A118A260A128A113A29E4
:1001D8000A304C02031CF128F2283A290A30A200FE
:1001E8000030A3004C08B800B9013808A400390849
:1001F800A5000A128A1190230A128A118312031386
:100208002208BA003A08C9000A30F3000030F400A6
:100218004C08B800B9013808F5003908F6000A1288
:100228008A11F9230A128A11730883120313BA0078
:100238003A08C8000D30B8003808F60002300A1233
:100248008A11BE250A128A11831203134908303E07
:100258000A128A118A260A128A118312031348087D
:10026800303E0A128A118A260A128A11080083125D
:100278000313B20032080319422943295729AD1F35
:100288004629472957292A09B4002B09B5002C0902
:10029800B6002D09B700B40A0319B50A0319B60A3E
:1002A8000319B70A5F292D08B7002C08B6002B08D8
:1002B800B5002A08B4002D082C042B042A04031DB9
:1002C8006629672970290030AD000030AC00003085
:1002D800AB000030AA00F6299630AE002E08B30015
:1002E80082290130AE002E08B30701300310B70C85
:1002F800B60CB50CB40CFF3E031D7A29FE30370549
:10030800031D872988297529A4290130AE002E08E4
:10031800B3070130B407003003180130B5070030C7
:1003280003180130B607003003180130B707013051
:100338000310B70CB60CB50CB40CFF3E031D9C297A
:10034800FF303705031DA929AA298929B6290130B3
:10035800B3020130AE000310B40DB50DB60DB70DE4
:10036800AE0BAF29B61BB929BA29C029023033020E
:100378000318BF29C029AB293318C329C429CC299C
:10038800FF30B405FF30B5057F30B605FF30B7053F
:100398000310B30C3308AE00AF01B001B10118303F
:1003A8000310AE0DAF0DB00DB10DFF3E031DD429E6
:1003B8002E08B4042F08B5043008B6043108B70471
:1003C80032080319E829E929EE29AD1FEC29ED299E
:1003D800EE29B7173708AD003608AC003508AB0072
:1003E8003408AA000800643083120313A200003006
:1003F800A3005808AA00AB0103102A0DA4002B0D76
:10040800A5000A128A1190230A128A118312031373
:100418002208AC002C08F8006430F3000030F40027
:100428007808AA00AB012A08F5002B08F6000A1282
:100438008A11F9230A128A11730883120313AC0074
:100448002C08D3000A30A2000030A3005308AA00E9
:10045800AB012A08A4002B08A5000A128A119023D0
:100468000A128A11831203132208AC002C08D20046
:100478000A30F3000030F4005308AA00AB012A0840
:10048800F5002B08F6000A128A11F9230A128A11BC
:10049800730883120313AC002C08D1005108AA007A
:1004A8002A08D0007808303E0A128A118A260A12D1
:1004B8008A112E300A128A118A260A128A11831288
:1004C80003135208303E0A128A118A260A128A1128
:1004D800831203135008303E0A128A118A260A1220
:1004E8008A1156300A128A118A260A128A110A12A9
:1004F8008A11A3240A128A110A128A1154240A1290
:100508008A110800643083120313A2000030A3008C
:100518005908AA00AB0103102A0DA4002B0DA50051
:100528000A128A1190230A128A11831203132208CD
:10053800AC002C08FA006430F3000030F4007A08AC
:10054800AA00AB012A08F5002B08F6000A128A1146
:10055800F9230A128A11730883120313AC002C08BA
:10056800F9000A30A2000030A3007908AA00AB0104
:100578002A08A4002B08A5000A128A1190230A123F
:100588008A11831203132208AC002C08D6000A3003
:10059800F3000030F4007908AA00AB012A08F5003E
:1005A8002B08F6000A128A11F9230A128A11730815
:1005B80083120313AC002C08D5005508AA002A089A
:1005C800D4007A08303E0A128A118A260A128A1141
:1005D8002E300A128A118A260A128A1183120313EC
:1005E8005608303E0A128A118A260A128A11831284
:1005F80003135408303E0A128A118A260A128A11F5
:1006080056300A128A118A260A128A110A128A1187
:10061800E7240A128A1108000A128A114A260A12C5
:100628008A110A128A112B250A128A11F601F60A72
:1006380001300A128A11BE250A128A110E300A12D6
:100648008A11E4250A128A11F601F60A02300A1202
:100658008A11BE250A128A1101300A128A11E4256C
:100668000A128A11023083120313BE002530BD001E
:100678003130BC00BC0B3E2BBD0B3E2BBE0B3E2BC2
:100688000A128A119A260A128A11F601F60A01300C
:100698000A128A11BE250A128A1121300A128A11F9
:1006A800E4250A128A11073083120313BC003C08A0
:1006B800F60001300A128A11BE250A128A11273063
:1006C8000A128A11E4250A128A110D3083120313C3
:1006D800BC003C08F60001300A128A11BE250A1235
:1006E8008A1118300A128A11E4250A128A110A128C
:1006F8008A11C6260A128A1101300A128A111F208D
:100708000A128A1100300A128A111F200A128A114D
:10071800802B0A128A110C2883120313A701A31F26
:10072800962B972B9E2BA209A309A20A0319A30AA9
:10073800A701A70AA51FA12BA22BAB2BA409A509CA
:10074800A40A0319A50A0130F7007708A706A8012B
:10075800A901220823040319B22BB32BEA2BA60103
:10076800A60AC12B01300310A20DA30DFF3E031DE5
:10077800B72B0130F7007708A607A31FC42BC52B9A
:10078800B62B01300310A80DA90DFF3E031DC62B83
:1007980023082502031DD22B22082402031CD52B73
:1007A800D62BDD2B2208A4022308031CA503A502CF
:1007B800281401300310A30CA20CFF3E031DDE2BEE
:1007C8000130A602031DE92BEA2BC52B27080319C4
:1007D800EE2BEF2BF42BA809A909A80A0319A90ADB
:1007E8002908A3002808A200080083120313A10106
:1007F800F61FFF2B002C072CF509F609F50A03193B
:10080800F60AA101A10AF41F0A2C0B2C102CF309DB
:10081800F409F30A0319F40A730874040319152C6C
:10082800162C452CA001A00A242C01300310F30D2E
:10083800F40DFF3E031D1A2C0130F7007708A007BE
:10084800F41F272C282C192C74087602031D2E2C33
:1008580073087502031C312C322C382C7308F502EE
:100868007408031CF603F60201300310F40CF30CB1
:10087800FF3E031D392C0130A002031D442C452CDA
:10088800282C21080319492C4A2C4F2CF509F60964
:10089800F50A0319F60A7608F4007508F30008004B
:1008A8000A30831203134C0203185B2C5C2C7E2C39
:1008B80043300A128A11B4260A128A113A300A12EF
:1008C8008A11B4260A128A1130300A128A11B42603
:1008D8000A128A11831203134C08303E0A128A1135
:1008E800B4260A128A110D300A128A11B4260A1285
:1008F8008A11A22C43300A128A11B4260A128A11CC
:100908003A300A128A11B4260A128A118312031382
:100918004908303E0A128A11B4260A128A11831233
:1009280003134808303E0A128A11B4260A128A11A3
:100938000D300A128A11B4260A128A11080053309F
:100948000A128A11B4260A128A1132300A128A113E
:10095800B4260A128A113A300A128A11B4260A12E7
:100968008A117808303E0A128A11B4260A128A11AE
:100978002E300A128A11B4260A128A11831203131E
:100988005208303E0A128A11B4260A128A118312BA
:1009980003135008303E0A128A11B4260A128A112B
:1009A80056300A128A11B4260A128A1120300A1205
:1009B8008A11B4260A128A1120300A128A11B42622
:1009C8000A128A11080053300A128A11B4260A1230
:1009D8008A1131300A128A11B4260A128A113A3061
:1009E8000A128A11B4260A128A117A08303E0A12AB
:1009F8008A11B4260A128A112E300A128A11B426D4
:100A08000A128A11831203135608303E0A128A11F9
:100A1800B4260A128A11831203135408303E0A12AC
:100A28008A11B4260A128A1156300A128A11B4267B
:100A38000A128A1120300A128A11B4260A128A115F
:100A480020300A128A11B4260A128A110800831269
:100A58000313081100300A128A1165260A128A1136
:100A68002C30F700D330F600F60B382DF70B382D65
:100A78003D2D30300A128A1165260A128A11773004
:100A8800F600F60B452D482D38300A128A116526D6
:100A98000A128A110D300A128A1165260A128A1161
:100AA80001300A128A1165260A128A1106300A12C2
:100AB8008A1165260A128A11080005308A0004087E
:100AC800840A820700345234413455344C345F343C
:100AD80041344734553449344C3441345234003469
:100AE8004434493447344934543441344C34203440
:100AF8003234003443346F346E34743461346434C3
:100B08006F347234003456346F346C347434313486
:100B1800003456346F346C347434323400348312F5
:100B28000313A001A101731C9A2D9B2DA32D7508F9
:100B380083120313A0070318A10A7608A10701303E
:100B48000310F50DF60DFF3E031DA42D0130031013
:100B5800F40CF30CFF3E031DAB2D73087404031D46
:100B6800B62DB72D972D831203132108F400200802
:100B7800F300080083120313A0002003031DC52DF2
:100B8800C62DD22D76087F3EF7007708A1002108F0
:100B98000A128A1165260A128A11E32D02302006EC
:100BA800031DD72DD82DE32D7608BF3EF700770813
:100BB800A10021080A128A1165260A128A11080062
:100BC800F700F501F601FB2D7508770784000A1276
:100BD8008A1161250A128A110A128A118A260A12B2
:100BE8008A110130F5070318F60A0030F607750870
:100BF800770784000A128A1161250A128A11003ABD
:100C0800031D072E082EE82D0800831203130C1F5E
:100C18000E2E0F2E182E0C131E08F0007008D90087
:100C28001E08F0007008D8008C1E1B2E1C2E272EC4
:100C38000A128A11A7260A128A11F0007008831274
:100C48000313CB008C1272088A00710E8300FE0E0B
:100C58007E0E09002B30831203134B06031D352E1D
:100C6800362E3D2E4C08013EF3007308CC00CB0114
:100C7800492E2D304B06031D422E432E492E4C087B
:100C8800FF3EF3007308CC003B2E080083160317C1
:100C980088018901033083160313850086018801C2
:100CA8008316031708148814831203131F1483165A
:100CB80003139F138B170B170C17831203130C13B3
:100CC8000800F500831203130811750886008815BB
:100CD8000C30F400AF30F300F30B702EF40B702ED1
:100CE80083120313881108003930831603139900FF
:100CF80098131813981618121815831203139817B7
:100D08001813981218168C120C120800F40083128B
:100D1800031308157408860088151D30F300F30BBB
:100D2800932E962E831203138811080000300A129E
:100D38008A1165260A128A1101300A128A1165265B
:100D48000A128A110800831203139818AC2EAD2ECC
:100D5800B22E181200008312031318161A0808007E
:100D6800F30073088312031399000C1EBC2EBD2ECA
:100D7800B92E080064008001840A040603190034AF
:100D88000406BF2E0A128A1178260A128A11080050
:04400E00D420FF3F7C
:00000001FF
