:020000040000FA
:100000000A128A11F32F64008001840A040603197E
:10001000003404060428FB01FC0176087704031968
:10002000122813284A28FD01FD0A21280130031057
:10003000F60DF70DFF3E031D17280130FA007A0870
:10004000FD07F71F24282528162801300310FB0D73
:10005000FC0DFF3E031D262877087902031D322878
:1000600076087802031C352836283D287608F802E1
:100070007708031CF903F9027B1401300310F70C15
:10008000F60CFF3E031D3E280130FD02031D4928EA
:100090004A2825287C08F7007B08F60008000A1685
:1000A0008A1527210A128A110A168A15DB210A12DB
:1000B0008A11F301F30A01300A168A1545210A1242
:1000C0008A119E30F2008030F3000A168A154B2206
:1000D0000A128A11F301F30A02300A168A15452121
:1000E0000A128A119130F2008030F3000A168A1544
:1000F0004B220A128A11023083160313D6002530D0
:10010000D5003130D400D40B8328D50B8328D60BEF
:1001100083280A168A15E1200A128A11F301F30ACC
:1001200001300A168A1545210A128A11BC30F200E4
:100130008030F3000A168A154B220A128A11083001
:1001400083160313D4005408F30001300A168A15ED
:1001500045210A128A11C130F2008030F3000A16DC
:100160008A154B220A128A110E3083160313D4000B
:100170005408F30001300A168A1545210A128A1123
:10018000B730F2008030F3000A168A154B220A12AB
:100190008A118312031307110F3083160313D5003E
:1001A0009A30D400D40BD228D50BD2280000831269
:1001B000031306080A168A15C0200A128A110A16A5
:1001C0008A15CD200A128A1183160313D400D50193
:1001D000D601D701570883120313A7008316031310
:1001E000560883120313A6008316031355088312BF
:1001F0000313A50083160313540883120313A400EA
:1002000000300A168A15C9250A128A1183120313AF
:10021000270883160313DB008312031326088316B3
:100220000313DA0083120313250883160313D9007E
:1002300083120313240883160313D8000A168A15A1
:100240008E210A128A110F3083160313D5009A30BB
:10025000D400D40B2929D50B2929000083120313BC
:10026000071587100F3083160313D5009A30D4007A
:10027000D40B3829D50B3829000083120313060844
:100280000A168A15C0200A128A110A168A15CD206C
:100290000A128A1183160313D400D5015408E6000C
:1002A0005508E7000A168A153E240A128A110F30F3
:1002B00083160313D5009A30D400D40B5D29D50BD7
:1002C0005D29000083120313871407100F30831673
:1002D0000313D5009A30D400D40B6C29D50B6C29AC
:1002E00000008312031306080A168A15C0200A129A
:1002F0008A110A168A15CD200A128A118316031351
:10030000D400D5015408E4005508E5000A168A1106
:1003100012200A128A110F3083160313D5009A3067
:10032000D400D40B9129D50B91290000831203131B
:100330000714C9280A128A11002883160313C9005A
:10034000AD30B1003108BA00DC2F25304E0603195C
:10035000AA29AB29B7294E08B10049088400310801
:10036000831380000130B1003108C907DC2FBB01C5
:10037000BC012C0884000A128A150A200A128A116C
:100380002E3A031DC429C5290A2A3C170130B100A1
:100390003108AC07C701C801F9290A30F000003064
:1003A000F100831603134808F3004708F2000A1609
:1003B0008A1569210A128A11710883160313C8006D
:1003C0007008C7002C0884000A128A150A200A1235
:1003D0008A11D03EB100FF3003180030B20031085E
:1003E000C7070318C80A3208C8070130B10031082E
:1003F000AC072C0884000A128A150A200A128A11F6
:100400000A168A1100200A128A110318082A092ADA
:10041000CD29102AC701C8013C16102A3C152C2AE8
:10042000013083160313AC07FF302C0784000A1237
:100430008A150A200A128A11CE00B100B2013208D0
:10044000003A0319242ADC2F3108003A0319EE2F51
:10045000663A03190E2ADC2F00303B05B100073045
:100460003C05B200310832040319372A382A972F85
:100470003C1E3B2A3C2A402A0630C7000030C800F8
:100480003A08840083130008CA00840A0008CB00DD
:10049000840A0008CC00840A0008CD000430B100B2
:1004A0003108BA074D08F3004C08F2004B08F10080
:1004B0004A08F0000030F7000030F6000030F50088
:1004C0000030F4000A168A1527250A128A1103182B
:1004D0006A2A6B2A882A831603134D08F3004C08F6
:1004E000F2004B08F1004A08F0000A168A15D620DF
:1004F0000A128A11730883160313CD007208CC0008
:100500007108CB007008CA000330BB040030BC0483
:1005100083160313C101C2014D08F3004C08F20019
:100520004B08F1004A08F0000030F7000030F600F8
:100530000030F5000030F4000A168A158D220A12E8
:100540008A110318A42AA52A952B031083160313D6
:100550004C0D4D0D823EC100FF3003180030C2002B
:10056000FF30C1070318C20AFF30C2070330F00092
:100570000030F1004208F3004108F2000A168A1523
:1005800069210A128A11710883160313C2007008C8
:10059000C1000A30F7000030F8004208FA004108B4
:1005A000F9000A128A15D7200A128A1178088316D0
:1005B0000313C2007708C100C21FDF2AE02AE62A1F
:1005C000FF30C1070318C20AFF30C2074103FF3AD8
:1005D0000A128A1540210A128A11831203134F0846
:1005E00083160313C600831203134E0883160313E6
:1005F000C500831203134D0883160313C40083122E
:1006000003134C0883160313C3004D08831203130E
:10061000B500831603134C0883120313B40083162A
:1006200003134B0883120313B300831603134A0802
:1006300083120313B20083160313460883120313B5
:10064000B90083160313450883120313B8008316F9
:100650000313440883120313B700831603134308DC
:1006600083120313B6000A128A159F240A128A11F4
:1006700083120313350883160313C6008312031372
:10068000340883160313C50083120313330883163B
:100690000313C40083120313320883160313C30029
:1006A0004608F3004508F2004408F1004308F00052
:1006B0003F30F7008030F6000030F5000030F400E5
:1006C0000A168A1527250A128A110318682B692B26
:1006D000722BFF3083160313C1070318C20AFF30C1
:1006E000C207952B831603134608F3004508F20052
:1006F0004408F1004308F0004130F7002030F600D4
:100700000030F5000030F4000A168A1527250A1279
:100710008A11031C8C2B8D2B952B01308316031310
:10072000C1070318C20A0030C20783160313480822
:10073000803AFF0080307F02031DA02B0D3047025E
:100740000318A32BA42BEB2B8316031347080A16BD
:100750008A11B5220A128A11831203134F08E3008B
:100760004E08E2004D08E1004C08E0008316031338
:100770004D0883120313E700831603134C088312FA
:100780000313E600831603134B0883120313E500DB
:10079000831603134A0883120313E4000A168A110E
:1007A000C0240A128A1183120313630883160313E9
:1007B000CD0083120313620883160313CC00831247
:1007C0000313610883160313CB008312031360081D
:1007D00083160313CA00831603134208803AFF00EE
:1007E00080307F02031DF62B0A3041020318F92BDB
:1007F000FA2B4B2C831603134D08F3004C08F20020
:100800004B08F1004A08F0000030F7000030F60015
:100810000030F5000030F4000A168A158D220A1205
:100820008A110318142C152CBD2C831603134D08A4
:1008300083120313E200831603134C08831203137D
:10084000E100831603134B0883120313E0008316A1
:1008500003134A0883120313DF000A168A15AB2418
:100860000A128A11831203136208610460045F0490
:10087000031D3B2C3C2CBD2C831603134208803AED
:10088000FF0080307F02031D472C02304102031C11
:100890004A2C4B2CBD2C831603134608F300450845
:1008A000F2004408F1004308F0004030F7008930BE
:1008B000F6007030F5005F30F4000A168A1527251F
:1008C0000A128A110318652C662C6F2CF7308316D8
:1008D0000313C1070318C20AFF30C207772CF83090
:1008E00083160313C1070318C20AFF30C207410869
:1008F0000A128A1540210A128A11831203134F0823
:1009000083160313C600831203134E0883160313C2
:10091000C500831203134D0883160313C40083120A
:1009200003134C0883160313C3004D08F3004C084F
:10093000F2004B08F1004A08F0004608F7004508AD
:10094000F6004408F5004308F4000A168A15422709
:100950000A128A11730883160313C0007208BF00BD
:100960007108BE007008BD000030CD000030CC0022
:100970000030CB000030CA003F2D831603134D0812
:1009800083120313E200831603134C08831203132C
:10099000E100831603134B0883120313E000831650
:1009A00003134A0883120313DF000A168A15AB24C7
:1009B0000A128A1183120313620883160313C000FC
:1009C00083120313610883160313BF0083120313FA
:1009D000600883160313BE00831203135F08831697
:1009E0000313BD00400883120313A70083160313EB
:1009F0003F0883120313A600831603133E088312D5
:100A00000313A500831603133D0883120313A400E8
:100A100000300A168A15C9250A128A118312031397
:100A2000270883160313A7008312031326088316CF
:100A30000313A60083120313250883160313A500CE
:100A400083120313240883160313A4004D08AB007C
:100A50004C08AA004B08A9004A08A8000A168A15E3
:100A6000DB220A128A11831603132708CD002608F9
:100A7000CC002508CB002408CA00C101C201CE0168
:100A8000CE0A4E08B10001300310B10DFF3E031D28
:100A9000442D0310310D693E84000A128A150A2084
:100AA0000A128A11B2000A128A150A200A128A1141
:100AB000B3000A128A150A200A128A11B4000A1217
:100AC0008A150A200A128A11B50035084002031D52
:100AD000732D34083F02031D732D33083E02031D9E
:100AE000732D32083D020318762D772D782D822D37
:100AF0000130B1003108CE070A304E06031D812DAA
:100B0000822D412D03303B05B10000303C05B20081
:100B10003108320403198D2D8E2D002E2D30B10099
:100B2000490884003108831380000130B100310886
:100B3000C907002E4E08B10001300310B10DFF3E71
:100B4000031D9D2D0310310D693E84000A128A1584
:100B50000A200A128A11F0000A128A150A200A12C3
:100B60008A11F1000A128A150A200A128A11F2006B
:100B70000A128A150A200A128A11F3004008F700A7
:100B80003F08F6003E08F5003D08F4000A168A15F5
:100B9000D8230A128A11730883160313C600720839
:100BA000C5007108C4007008C3000030F3000030B5
:100BB000F2000030F1000A30F0004608F700450866
:100BC000F6004408F5004308F4000A168A152B23A2
:100BD0000A128A11730883160313C6007208C5002F
:100BE0007108C4007008C3004308303EB1004908D2
:100BF00084003108831380000130B1003108C90737
:100C00000130CE024E0A031D062E072E9A2D1B2EF2
:100C1000303083160313B100490884003108831370
:100C200080000130B1003108C907FF30C107031847
:100C3000C20AFF30C2074208803AFF0080307F02BC
:100C4000031D242E013041020318272E282E082EC2
:100C5000831603134808803AFF0080307F02031D8B
:100C6000332E09304702031C362E372E3E2E083015
:100C700083160313B1003108CE00442E83160313EC
:100C80004708B1003108CE004E08B100B20131086A
:100C9000C7023208031CC803C8024E080319512EAC
:100CA000522E5D2E2E30B100490884003108831386
:100CB00080000130B1003108C9074E080A128A15B8
:100CC00040210A128A11831203134F08831603135B
:100CD000B900831203134E0883160313B80083125E
:100CE00003134D0883160313B700831203134C0834
:100CF00083160313B600390883120313B900831651
:100D00000313380883120313B8008316031337083C
:100D100083120313B70083160313360883120313D9
:100D2000B600831603134D0883120313B500831610
:100D300003134C0883120313B400831603134B08E8
:100D400083120313B300831603134A088312031399
:100D5000B2000A128A159F240A128A118312031301
:100D60003508E2003408E1003308E0003208DF0013
:100D70000A168A15AB240A128A1183120313620819
:100D800083160313C0008312031361088316031331
:100D9000BF0083120313600883160313BE0083127F
:100DA00003135F0883160313BD00772F4E08B100AD
:100DB00001300310B10DFF3E031DD92E0310310D7C
:100DC000693E84000A128A150A200A128A11F0006C
:100DD0000A128A150A200A128A11F1000A128A15CB
:100DE0000A200A128A11F2000A128A150A200A122F
:100DF0008A11F3004008F7003F08F6003E08F500AE
:100E00003D08F4000A168A15D8230A128A117308BD
:100E100083160313C6007208C5007108C400700869
:100E2000C3000030F3000030F2000030F1000A305F
:100E3000F0004608F7004508F6004408F5004308AE
:100E4000F4000A168A152B230A128A1173088316D6
:100E50000313C6007208C5007108C4007008C300FF
:100E60004308303EB10049088400310883138000F4
:100E70000130B1003108C9074E08B100013003103C
:100E8000B10DFF3E031D3F2F0310310D693E84005D
:100E90000A128A150A200A128A11F0000A128A150B
:100EA0000A200A128A11F1000A128A150A200A126F
:100EB0008A11F2000A128A150A200A128A11F30016
:100EC0004008F7003F08F6003E08F5003D08F40032
:100ED0000A168A152B230A128A1173088316031324
:100EE000C0007208BF007108BE007008BD0001306C
:100EF000CE024E0A031D7D2F7E2FD62E902F30302E
:100F0000B100490884003108831380000130B1002A
:100F10003108C907FF30C7070318C80AFF30C807E0
:100F200047084804031D952F962F7F2FDC2F470875
:100F30004804031D9C2F9D2FAB2F40083F043E0407
:100F40003D04031DA42FA52FAB2F0130C7070318A5
:100F5000C80A0030C8074808803A803C031DB22FF9
:100F600047084E020318B52FB62FB72FC62F83168A
:100F700003134808803AB10080303102031DC22FAC
:100F80004E0847020318C52FC62FC62F03308316FD
:100F900003133B05B10000303C05B20031083204B8
:100FA0000319D32FD42FDC2F2D30B1004908840032
:100FB000310883138000B2290130AC07FF302C07C1
:100FC00084000A128A150A200A128A11B100310817
:100FD000CE004E08031DED2FEE2FA52949088400F1
:100FE0008313800108008313D8308400EB300A1289
:100FF0008A1103200A128A1183010A128A114F28CA
:10100000FF1B0A2883137F1883170008840A03191B
:10101000FF0A080008308A000408840A82070034A6
:101020000034003480343F34003400342034413400
:1010300000340034C8344234003400347A34443448
:10104000003440341C34463400345034C334473404
:1010500000342434743449348034963418344B3496
:101060002034BC34BE344C3428346B346E344E34AB
:10107000F934023415345034EC347834AD346034FF
:10108000CA34F234493471340034003480343F348B
:10109000CD34CC34CC343D340A34D73423343C34CE
:1010A0006F34123483343A341734B734D13438348B
:1010B000AC34C53427343734BD3437348634353412
:1010C0009534BF34D63433347734CC342B34323483
:1010D0005F34703489343034FF34E634DB342E34FA
:1010E0000834E5343C341E3460344234A2340D34C8
:1010F00001340034003400340A3400340034003445
:101100006434003400340034E834033400340034F0
:101110001034273400340034A034863401340034D1
:10112000403442340F3400348034963498340034E0
:101130000034E134F53405340034CA349A343B3495
:101140005234413455344C342034413447345534CE
:1011500049344C34413452340034443449344734F3
:101160004934543441344C3420343234003425343E
:101170002E3431346634003425342E34323466341F
:10118000003425342E34333466340034543465341A
:101190006D347034003443346F346E34743400343E
:0811A0004134443443340034AF
:1011AE0083120313A101F81FDD28DE28E528F709B5
:1011BE00F809F70A0319F80AA101A10AFA1FE8288B
:1011CE00E928F228F909FA09F90A0319FA0A01308D
:1011DE00FB007B08A106A201A3017708780403197E
:1011EE00F928FA283129A001A00A08290130031094
:1011FE00F70DF80DFF3E031DFE280130FB007B08A6
:10120E00A007F81F0B290C29FD2801300310A20D91
:10121E00A30DFF3E031D0D2978087A02031D19291F
:10122E0077087902031C1C291D2924297708F90245
:10123E007808031CFA03FA02221401300310F80C8A
:10124E00F70CFF3E031D25290130A002031D302996
:10125E0031290C2921080319352936293B29A209E0
:10126E00A309A20A0319A30A2308F8002208F7000B
:10127E00080083120313DE00DE1F46294729F42AD5
:10128E00DE09DE0A5E08803A123E031C4F29502901
:10129E00382A0A30F7000030F8005E08F200F30139
:1012AE00F21BF3036430F0000030F1000A168A15C9
:1012BE007F230A128A157108FA007008F9000A12C3
:1012CE008A15D7200A128A15770883120313D000C5
:1012DE0001300310D00DFF3E031D70290310500D79
:1012EE00593E84000A128A150A200A128A15D10064
:1012FE000A128A150A200A128A15D2000A128A15B3
:10130E000A200A128A15D3000A128A150A200A1216
:10131E008A15D4005408B5005308B4005208B3001F
:10132E005108B2006430F7000030F8005E08F90092
:10133E00FA01F91BFA030A128A15D7200A128A1526
:10134E00770883120313D50001300310D50DFF3E2D
:10135E00031DAC290310550D7D3E84000A128A151B
:10136E000A200A128A15D6000A128A150A200A12B3
:10137E008A15D7000A128A150A200A128A15D80071
:10138E000A128A150A200A128A15D9005908B900BC
:10139E005808B8005708B7005608B6000A128A1542
:1013AE009F240A128A15831203133508DD003408B0
:1013BE00DC003308DB003208DA000A30F0000030BF
:1013CE00F1005E08F200F301F21BF3030A168A1510
:1013DE007F230A128A15700883120313D00001307E
:1013EE000310D00DFF3E031DF7290310500D353E9F
:1013FE0084000A128A150A200A128A15D1000A12CE
:10140E008A150A200A128A15D2000A128A150A2093
:10141E000A128A15D3000A128A150A200A128A1590
:10142E00D4005408B5005308B4005208B300510854
:10143E00B2005D08B9005C08B8005B08B7005A0836
:10144E00B6000A128A159F240A128A1583120313F4
:10145E003508CF003408CE003308CD003208CC005A
:10146E009E2C5E08803A753E031C3E2A3F2AC72AF0
:10147E000A30F0000030F1005E08F200F301F21BBA
:10148E00F3030A168A157F230A128A15700883122F
:10149E000313D00001300310D00DFF3E031D522A5E
:1014AE000310500D353E84000A128A150A200A12C6
:1014BE008A15D1000A128A150A200A128A15D2003C
:1014CE000A128A150A200A128A15D3000A128A15E0
:1014DE000A200A128A15D4005408B5005308B40025
:1014EE005208B3005108B2000A30F7000030F8007D
:1014FE005E08F900FA01F91BFA030A128A15D720C1
:10150E000A128A15770883120313D50001300310CF
:10151E00D50DFF3E031D8E2A0310550D593E840036
:10152E000A128A150A200A128A15D6000A128A157C
:10153E000A200A128A15D7000A128A150A200A12E0
:10154E008A15D8000A128A150A200A128A15D9009D
:10155E005908B9005808B8005708B7005608B60021
:10156E000A128A159F240A128A158312031335084C
:10157E00CF003408CE003308CD003208CC009E2CAC
:10158E005E08D00001300310D00DFF3E031DCA2AA5
:10159E000310500D353E84000A128A150A200A12D5
:1015AE008A15D1000A128A150A200A128A15D2004B
:1015BE000A128A150A200A128A15D3000A128A15EF
:1015CE000A200A128A15D4005408CF005308CE0000
:1015DE005208CD005108CC009E2C5E08803A123E77
:1015EE00031CFA2AFB2AE32B0A30F7000030F8001E
:1015FE005E08F200F301F21BF3036430F0000030DA
:10160E00F1000A168A157F230A128A157108FA004C
:10161E007008F9000A128A15D7200A128A1577085F
:10162E0083120313D00001300310D00DFF3E031DB3
:10163E001B2B0310500D253E84000A128A150A201A
:10164E000A128A15D1000A128A150A200A128A1560
:10165E00D2000A128A150A200A128A15D3000A121B
:10166E008A150A200A128A15D4005408B5005308A8
:10167E00B4005208B3005108B2006430F7000030D5
:10168E00F8005E08F900FA01F91BFA030A128A152E
:10169E00D7200A128A15770883120313D50001305A
:1016AE000310D50DFF3E031D572B0310550D493E5C
:1016BE0084000A128A150A200A128A15D6000A1206
:1016CE008A150A200A128A15D7000A128A150A20CC
:1016DE000A128A15D8000A128A150A200A128A15C9
:1016EE00D9005908B9005808B8005708B70056086D
:1016FE00B6000A128A159F240A128A158312031342
:10170E003508DD003408DC003308DB003208DA006F
:10171E000A30F0000030F1005E08F200F301F21B17
:10172E00F3030A168A157F230A128A15700883128C
:10173E000313D00001300310D00DFF3E031DA22B6A
:10174E000310500D013E84000A128A150A200A1257
:10175E008A15D1000A128A150A200A128A15D20099
:10176E000A128A150A200A128A15D3000A128A153D
:10177E000A200A128A15D4005408B5005308B40082
:10178E005208B3005108B2005D08B9005C08B800F9
:10179E005B08B7005A08B6000A128A159F240A126F
:1017AE008A15831203133508CF003408CE00330890
:1017BE00CD003208CC009E2C5E08803A753E031C8C
:1017CE00E92BEA2B722C0A30F0000030F1005E0893
:1017DE00F200F301F21BF3030A168A157F230A1295
:1017EE008A15700883120313D00001300310D00D38
:1017FE00FF3E031DFD2B0310500D013E84000A1207
:10180E008A150A200A128A15D1000A128A150A2090
:10181E000A128A15D2000A128A150A200A128A158D
:10182E00D3000A128A150A200A128A15D400540807
:10183E00B5005308B4005208B3005108B2000A3084
:10184E00F7000030F8005E08F900FA01F91BFA0300
:10185E000A128A15D7200A128A15770883120313E3
:10186E00D50001300310D50DFF3E031D392C03109A
:10187E00550D253E84000A128A150A200A128A1571
:10188E00D6000A128A150A200A128A15D7000A12E1
:10189E008A150A200A128A15D8000A128A150A20F9
:1018AE000A128A15D9005908B9005808B800570805
:1018BE00B7005608B6000A128A159F240A128A1516
:1018CE00831203133508CF003408CE003308CD0041
:1018DE003208CC009E2C5E08D00001300310D00DD3
:1018EE00FF3E031D752C0310500D013E84000A129D
:1018FE008A150A200A128A15D1000A128A150A20A0
:10190E000A128A15D2000A128A150A200A128A159C
:10191E00D3000A128A150A200A128A15D400540816
:10192E00CF005308CE005208CD005108CC0008005D
:10193E008312031335088039BA003A08BF00350800
:10194E00BA003A07BB003B08C500B41FAF2CB02C41
:10195E00B12C451445080319B52CB62CC52C450AD7
:10196E00031DBA2CBB2CC32C0030B5000030B400C4
:10197E000030B3000030B200B417CD2C0030B500EB
:10198E000030B4000030B3000030B20039088039A6
:10199E00BA003A08BF063908BA003A07BB003B083E
:1019AE00C400B81FDB2CDC2CDD2C441444080319B6
:1019BE00E12CE22CF12C440A031DE62CE72CEF2C33
:1019CE000030B9000030B8000030B7000030B6006B
:1019DE00B817F92C0030B9000030B8000030B7004D
:1019EE000030B60044080319FD2CFE2C032D4508CB
:1019FE00031D022D032D0C2D0030B5000030B40058
:101A0E000030B3000030B200FF2F3208BA003A089F
:101A1E00F00038080A168A15B4210A128A157108C0
:101A2E0083120313CB007008CA004A08BA00BB0128
:101A3E00BC01BD013D08C3003C08C2003B08C1000B
:101A4E003A08C0004B08BA00BB01BC01BD013D08FD
:101A5E00C9003C08C8003B08C7003A08C600330856
:101A6E00BA003A08F00037080A168A15B4210A128D
:101A7E008A15710883120313CB007008CA004A0836
:101A8E00BA00BB01BC01BD013A08C0073B080311F7
:101A9E000318013E0319542DC1073C080311031806
:101AAE00013E03195B2DC2073D0803110318013EC9
:101ABE000319622DC3074B08BA00BB01BC01BD015F
:101ACE003A08C6073B0803110318013E0319702D8F
:101ADE00C7073C0803110318013E0319772DC807E9
:101AEE003D0803110318013E03197E2DC907340862
:101AFE00BA003A08F00036080A168A15B4210A12FE
:101B0E008A15710883120313CB007008CA004A08A5
:101B1E00BA00BB01BC01BD013A08C0073B08031166
:101B2E000318013E03199C2DC1073C08031103182D
:101B3E00013E0319A32DC2073D0803110318013EF0
:101B4E000319AA2DC3074B08BA00BB01BC01BD0186
:101B5E003A08C6073B0803110318013E0319B82DB6
:101B6E00C7073C0803110318013E0319BF2DC80710
:101B7E003D0803110318013E0319C62DC90708308D
:101B8E00BA000310C00DC10DC20DC30DBA0BC82D86
:101B9E003308BA003A08F00036080A168A15B4213E
:101BAE000A128A15710883120313CB007008CA003B
:101BBE004A08BA004B08BB00BC01BD013A08C00779
:101BCE003B0803110318013E0319EE2DC1073C0813
:101BDE0003110318013E0319F52DC2073D08031129
:101BEE000318013E0319FC2DC3073208BA003A0848
:101BFE00F00037080A168A15B4210A128A157108E0
:101C0E0083120313CB007008CA004A08BA004B08AF
:101C1E00BB00BC01BD013A08C0073B080311031805
:101C2E00013E03191B2EC1073C0803110318013E88
:101C3E000319222EC2073D0803110318013E031992
:101C4E00292EC3070830BA000310C00DC10DC20DF6
:101C5E00C30DBA0B2B2E3208BA003A08F000360824
:101C6E000A168A15B4210A128A15710883120313F3
:101C7E00CB007008CA004A08BA004B08BB00BC0172
:101C8E00BD013A08C0073B0803110318013E0319B2
:101C9E00512EC1073C0803110318013E0319582E9B
:101CAE00C2073D0803110318013E03195F2EC30737
:101CBE003308BA003A08F00038080A168A15B4211B
:101CCE000A128A15710883120313CB007008CA001A
:101CDE004A08BA004B08BB00BC01BD013A08C60752
:101CEE003B0803110318013E03197E2EC7073C085B
:101CFE0003110318013E0319852EC8073D08031171
:101D0E000318013E03198C2EC9073408BA003A088D
:101D1E00F00037080A168A15B4210A128A157108BE
:101D2E0083120313CB007008CA004A08BA004B088E
:101D3E00BB00BC01BD013A08C6073B0803110318DE
:101D4E00013E0319AB2EC7073C0803110318013ED1
:101D5E000319B22EC8073D0803110318013E0319DB
:101D6E00B92EC9073408BA003A08F00038080A1626
:101D7E008A15B4210A128A15710883120313CB0037
:101D8E007008CA004A08BA004B08BB00BC01BD016E
:101D9E0008300310BA0DBB0DBC0DBD0DFF3E031D6B
:101DAE00D02E3A08C6073B0803110318013E03194B
:101DBE00E12EC7073C0803110318013E0319E82E54
:101DCE00C8073D0803110318013E0319EF2EC9077A
:101DDE004008BA004108BB004208BC004308BD00E1
:101DEE0018300310BD0CBC0CBB0CBA0CFF3E031D0F
:101DFE00F82E3A08C6073B0803110318013E0319D3
:101E0E00092FC7073C0803110318013E0319102FB1
:101E1E00C8073D0803110318013E0319172FC90700
:101E2E000830BA000310C00DC10DC20DC30DBA0BA0
:101E3E00192F45084407BA00BB01BB0D3A08823E74
:101E4E00CA003B080318013EFF3ECB004B2F01306A
:101E5E00BA000310C60DC70DC80DC90DBA0B302F31
:101E6E00C31F3A2F3B2F3C2F46140130BA000310EC
:101E7E00C00DC10DC20DC30DBA0B3E2FFF30CA07E8
:101E8E000318CB0AFF30CB07C81F4E2F4F2F2E2F14
:101E9E00C401C31F532F542F702FFF304005BA00BB
:101EAE00FF304105BB00FF304205BC007F304305CB
:101EBE00BD003D083C043B043A040319672F682F0C
:101ECE006B2FC401C40A702F461C6E2F6F2F702FFC
:101EDE00682F44080319742F752FA62F0130C607DB
:101EEE00003003180130C707003003180130C8074F
:101EFE00003003180130C907491C862F872FA62FE3
:101F0E004608BA004708BB004808BC004908BD0097
:101F1E000130BE003D0DBD0CBC0CBB0CBA0CBE0B93
:101F2E00912F3D08C9003C08C8003B08C7003A087D
:101F3E00C6000130CA070318CB0A0030CB074B0886
:101F4E00803AFF0080307F02031DAF2FFF304A0220
:101F5E00031CB22FB32FBE2F7F3083120313C90081
:101F6E008030C8000030C7000030C600F32F831247
:101F7E0003134B08803AFF0080307F02031DC92FE8
:101F8E0001304A020318CC2FCD2FD92F00308312E7
:101F9E000313C9000030C8000030C7000030C6006F
:101FAE00BF01F32F831203134A08BA003A08C50083
:101FBE00FF30C605FF30C7057F30C8050030C905A4
:101FCE00451CEA2FEB2FEC2FC8174508BA0003105B
:101FDE003A0CBB003B08C9003F08BA003A08C904D6
:101FEE004908B5004808B4004708B3004608B200D7
:101FFE000800F100F0013A30710203180728082892
:10200E00102830307102031C0D280E281028F00104
:10201E00F00A700C0800433083120313CF007F3098
:10202E00CE000030CD000030CC004030B500A030E6
:10203E00B4000030B3000030B200831603136408FE
:10204E0083120313A400831603136508831203136C
:10205E00A5000030A51BFF30A600A70001300A1610
:10206E008A15C9250A168A11831203132708B90087
:10207E002608B8002508B7002408B6000A128A15EB
:10208E009F240A168A11831203133508D3003408CD
:10209E00D2003308D1003208D0000A168A11D82097
:1020AE000A168A11831203134F0883160313D300E3
:1020BE00831203134E0883160313D20083120313E5
:1020CE004D0883160313D100831203134C08831695
:1020DE000313D000423083120313B500C830B4008E
:1020EE000030B3000030B20083160313530883127E
:1020FE000313B90083160313520883120313B80097
:10210E0083160313510883120313B70083160313A8
:10211E00500883120313B6000A128A159F240A165A
:10212E008A1183120313350883160313E3008312F7
:10213E000313340883160313E200831203133308C8
:10214E0083160313E100831203133208831603135D
:10215E00E000A830CF004F08AC006308B000620862
:10216E00AF006108AE006008AD00E8300A128A11B7
:10217E009D210A168A110D3083160313CF004F08C6
:10218E00F30002300A168A1545210A168A11E83024
:10219E00F2000030F3000A168A154B220A168A1135
:1021AE0008008312031353088039D4005408DD004D
:1021BE005308D4005407D5005508E400D21FE82870
:1021CE00E928EA28641464080319EE28EF28FF288A
:1021DE00640A031DF328F428FC280030D3000030D5
:1021EE00D2000030D1000030D000D217D301072921
:1021FE000030D3000030D2000030D1000030D000CB
:10220E004F088039D4005408DD064F08D400540717
:10221E00D5005508E500CE1F152916291729651476
:10222E00650803191B291C292C29650A031D202961
:10223E00212929290030CF000030CE000030CD00FA
:10224E000030CC00CE17CF0134290030CF00003043
:10225E00CE000030CD000030CC004F084E044D04AF
:10226E004C04031D3B293C2955290030D300003076
:10227E00D2000030D1000030D0008030D2047F3048
:10228E00D3045D08D4005408D3045308CF00520879
:10229E00CE005108CD005008CC00B42A6408031DAE
:1022AE0059295A2963290030CF000030CE00003062
:1022BE00CD000030CC00B42A6408D400D5015508F6
:1022CE00D70065085402D600031CD70356087F3E7C
:1022DE00DE0057080318013E003EDF005308DC0005
:1022EE005208DB005108DA005008D9000030D30044
:1022FE000030D2000030D1000030D0000030E300BA
:10230E000030E2000030E1000030E000E501D929A4
:10231E006508031993299429B4290130D4000310B8
:10232E00D90DDA0DDB0DDC0DD40B96290130D4005E
:10233E000310D00DD10DD20DD30DD40B9F29E31F59
:10234E00A929AA29AB2950140130D4000310E00D9D
:10235E00E10DE20DE30DD40BAD294F085C02031D18
:10236E00C2294E085B02031DC2294D085A02031DE5
:10237E00C2294C085902031CC529C629D529631741
:10238E004C08D9024D08031C4D0FDA024E08031CEF
:10239E004E0FDB024F08031C4F0FDC020130D4003E
:1023AE005408E5071A306502031CDE29DF298F2940
:1023BE005C085B045A0459040319E629E729062A26
:1023CE006014062A0130D4000310D00DD10DD20DA9
:1023DE00D30DD40BEB29E31FF529F629F729501459
:1023EE000130D4000310E00DE10DE20DE30DD40B2E
:1023FE00F929FF30DE070318DF0AFF30DF07D21F8F
:10240E00092A0A2AE929E501E31F0E2A0F2A2B2A97
:10241E00FF306005D400FF306105D500FF30620546
:10242E00D6007F306305D700570856045504540470
:10243E000319222A232A262AE501E50A2B2A501CF3
:10244E00292A2A2A2B2A232A650803192F2A302AF9
:10245E00612A0130D007003003180130D107003057
:10246E0003180130D207003003180130D307531C74
:10247E00412A422A612A5008D4005108D500520838
:10248E00D6005308D7000130D800570DD70CD60C04
:10249E00D50CD40CD80B4C2A5708D3005608D200B2
:1024AE005508D1005408D0000130DE070318DF0AAA
:1024BE000030DF075F08803AFF0080307F02031D87
:1024CE006A2AFF305E02031C6D2A6E2A7C2AFF30B8
:1024DE0083120313DE000030DF000030D300003023
:1024EE00D2000030D1000030D000831203135F08F9
:1024FE00803AFF0080307F02031D872A01305E0282
:10250E0003188A2A8B2A982A83120313DE01DF010D
:10251E000030D3000030D2000030D1000030D000A7
:10252E00DD01831203135E08D4005408E400641C1A
:10253E00A12AA22AA42AD217A82A7F30D40054088E
:10254E00D2056408D4000310540CD5005508D300EE
:10255E005D08D4005408D3044C29080083120313D9
:10256E00DF006E305F02031CBD2ABE2ACB2B3F302C
:10257E00B5000030B4000030B3000030B20064305B
:10258E00F6000030F7005F08D000D1015008F800C7
:10259E005108F9000A128A110B200A168A117608C0
:1025AE0083120313D20001300310D20DFF3E031D20
:1025BE00DB2A0310520D7D3E84000A128A150A2072
:1025CE000A168A11D3000A128A150A200A168A11CF
:1025DE00D4000A128A150A200A168A11D5000A1288
:1025EE008A150A200A168A11D6005608B90055080F
:1025FE00B8005408B7005308B6000A128A159F2473
:10260E000A168A11831203133508DE003408DD0022
:10261E003308DC003208DB000A30F6000030F70029
:10262E005F08D000D1015008F2005108F300643069
:10263E00F0000030F1000A168A1511220A168A11CE
:10264E007108F9007008F8000A128A110B200A1698
:10265E008A11760883120313D20001300310D20DB3
:10266E00FF3E031D352B0310520D593E84000A12F6
:10267E008A150A200A168A11D3000A128A150A2010
:10268E000A168A11D4000A128A150A200A168A110D
:10269E00D5000A128A150A200A168A11D600560883
:1026AE00B5005508B4005408B3005308B2005E08D4
:1026BE00B9005D08B8005C08B7005B08B6000A12E6
:1026CE008A159F240A168A11831203133508DA001D
:1026DE003408D9003308D8003208D7000A30F00089
:1026EE000030F1005F08D000D1015008F20051080F
:1026FE00F3000A168A1511220A168A11700883121F
:10270E000313D20001300310D20DFF3E031D8A2B9E
:10271E000310520D353E84000A128A150A200A163D
:10272E008A11D3000A128A150A200A168A11D400B9
:10273E000A128A150A200A168A11D5000A128A155B
:10274E000A200A168A11D6005608B5005508B4009C
:10275E005408B3005308B2005A08B9005908B8001B
:10276E005808B7005708B6000A128A159F240A1691
:10277E008A11831203133508CF003408CE003308B4
:10278E00CD003208CC00BF2C0B305F02031CD02BC7
:10279E00D12B7C2C3F30B5000030B4000030B3009C
:1027AE000030B2000A30F6000030F7005F08D000AB
:1027BE00D1015008F8005108F9000A128A110B20B5
:1027CE000A168A11760883120313D2000130031001
:1027DE00D20DFF3E031DEE2B0310520D593E840009
:1027EE000A128A150A200A168A11D3000A128A15AD
:1027FE000A200A168A11D4000A128A150A200A160D
:10280E008A11D5000A128A150A200A168A11D600D4
:10281E005608B9005508B8005408B7005308B6005A
:10282E000A128A159F240A168A1183120313350879
:10283E00DE003408DD003308DC003208DB000A302D
:10284E00F0000030F1005F08D000D1015008F20016
:10285E005108F3000A168A1511220A168A117008F9
:10286E0083120313D20001300310D20DFF3E031D5D
:10287E003B2C0310520D353E84000A128A150A2095
:10288E000A168A11D3000A128A150A200A168A110C
:10289E00D4000A128A150A200A168A11D5000A12C5
:1028AE008A150A200A168A11D6005608B500550850
:1028BE00B4005408B3005308B2005E08B9005D08B6
:1028CE00B8005C08B7005B08B6000A128A159F2490
:1028DE000A168A11831203133508CF003408CE006E
:1028EE003308CD003208CC00BF2C3F30B50000308D
:1028FE00B4000030B3000030B2005F08D0000130E9
:10290E000310D00DFF3E031D872C0310500D353ED6
:10291E0084000A128A150A200A168A11D1000A1298
:10292E008A150A200A168A11D2000A128A150A205E
:10293E000A168A11D3000A128A150A200A168A115B
:10294E00D4005408B9005308B8005208B700510813
:10295E00B6000A128A159F240A168A1183120313CF
:10296E003508CF003408CE003308CD003208CC0035
:10297E0008008312031363088039E8006808831681
:10298E000313A000831203136308E8006807E9002D
:10299E00690883160313A20083120313E21FD82CB7
:1029AE00D92CDC2C8316031322148316031322084E
:1029BE000319E22CE32CF62C220A031DE72CE82C3B
:1029CE00F22C003083120313E3000030E2000030DB
:1029DE00E1000030E0008312E217E301002D003029
:1029EE0083120313E3000030E2000030E1000030F8
:1029FE00E00067088039E800680883160313A10019
:102A0E002108200603190C2D0D2D0E2D20178312D3
:102A1E0003136708E8006807E900690883160313C3
:102A2E00A10083120313E61F1D2D1E2D212D8316CB
:102A3E00031321148316031321080319272D282DA0
:102A4E003B2D210A031D2C2D2D2D372D00308312E9
:102A5E000313E7000030E6000030E5000030E4002C
:102A6E008312E617E701452D003083120313E700AA
:102A7E000030E6000030E5000030E400831603135A
:102A8E002208210203184C2D4D2DC32D201F502D31
:102A9E00512D592D803083120313E80068088316D8
:102AAE000313A006220883120313E8006808831696
:102ABE000313A300210883120313E800680883168A
:102ACE000313A200230883120313E8006808831679
:102ADE000313A100831203136008E800680883162D
:102AEE000313A300831203136408E8006808E000D0
:102AFE0083160313230883120313E8006808E40007
:102B0E006108E800680883160313A30083120313F9
:102B1E006508E8006808E100831603132308831292
:102B2E000313E8006808E5006208E80068088316E9
:102B3E000313A300831203136608E8006808E2007B
:102B4E0083160313230883120313E8006808E600B4
:102B5E006308E800680883160313A30083120313A7
:102B6E006708E8006808E30083160313230883123E
:102B7E000313E8006808E70083160313A301210876
:102B8E0083120313E800E9016908EB0083160313AF
:102B9E002208831203136802EA00031CEB036B087E
:102BAE00803AFF0080307F02031DDF2D1A306A024B
:102BBE00031CE22DE32D352E8312031363086204EA
:102BCE0061046004031DEC2DEE2D0130EF2D00305D
:102BDE00E800680883160313A30000308312031362
:102BEE00E3000030E2000030E1000030E000831628
:102BFE000313210883120313E800680883160313D6
:102C0E00A2003D2E231C0C2E0D2E1A2E23088312ED
:102C1E000313E8000310680C0138E90069088316F5
:102C2E000313A3001C2E0310A30C83120313601CAA
:102C3E00212E222E252E83160313A3170130831265
:102C4E00E800630DE30CE20CE10CE00CE80B282E1F
:102C5E000130E800680883160313A20783160313D6
:102C6E0021082202031C3C2E3D2E092E201B402E35
:102C7E00412E9D2E2208031D452E462E512E00302C
:102C8E0083120313E3000030E2000030E100003055
:102C9E00E000FF2F831203136408E0076508031199
:102CAE000318013E03195C2EE10766080311031891
:102CBE00013E0319632EE207670803110318013E54
:102CCE0003196A2EE307631C6D2E6E2E632F831677
:102CDE000313231C732E742E812E230883120313C9
:102CEE00E8000310680C0138E90069088316031325
:102CFE00A300832E0310A30C83120313601C882ED3
:102D0E00892E8C2E83160313A31701308312E8002D
:102D1E00630DE30CE20CE10CE00CE80B8F2E01309E
:102D2E00E800680883160313A207632F83120313A8
:102D3E006308803AFF006708803A7F02031DB12EB8
:102D4E0066086202031DB12E65086102031DB12ED5
:102D5E00640860020318B42EB52E112FFF30E80060
:102D6E00FF30E900FF30EA00FF30EB006408EC00B2
:102D7E006508ED006608EE006708EF006008EC02DB
:102D8E006108031C610FCC2ECD2EED026208031CD0
:102D9E00620FD22ED32EEE026308031C630FD82EC1
:102DAE00D92EEF026C08E8076D0803186D0FE02EA0
:102DBE00E12EE9076E0803186E0FE62EE72EEA07DE
:102DCE006F0803186F0AEB076B08E3006A08E2004E
:102DDE006908E1006808E0008030E80068088316A2
:102DEE000313A006A309A30A2308031DFF2E002F19
:102DFE001F2F013083120313E00700300318013038
:102E0E00E107003003180130E207003003180130EB
:102E1E00E3071F2F6408E0026508031C650FE1023B
:102E2E006608031C660FE2026708031C670FE302C5
:102E3E0083126308620461046004031D272F282F88
:102E4E005E2F831603132308031D2E2F2F2F5E2FA5
:102E5E00003083120313E3000030E2000030E10083
:102E6E000030E000FF2F0130E8000310E00DE10D0F
:102E7E00E20DE30DE80B3C2F83160313A31F482F1F
:102E8E00492F4C2F83120313601483160313231C34
:102E9E00512F522F552F0314A30D572F0310A30D8F
:102EAE00220803195B2F5C2F5E2F0130A2028312C2
:102EBE00E21F622F632F3A2F83160313A101A31F64
:102ECE00692F6A2F7C2F23087F3903196F2F702FDC
:102EDE00752F83160313A101A10A7C2F83120313EE
:102EEE00601C7A2F7B2F7C2F702F831603132108E3
:102EFE000319822F832FBF2F013083120313E00794
:102F0E00003003180130E107003003180130E207EA
:102F1E00003003180130E307631C962F972FBF2F45
:102F2E006008E8006108E9006208EA006308EB0047
:102F3E000130EC006B0DEB0CEA0CE90CE80CEC0B21
:102F4E00A12F6B08E3006A08E2006908E100680837
:102F5E00E00083160313220A0319B62FB72FBF2FD3
:102F6E00013083120313E800680883160313A207C7
:102F7E0083160313220A0319C52FC62FCB2F22083F
:102F8E00031DCA2FCB2FDD2F003083120313E30056
:102F9E000030E2000030E1000030E0008316031341
:102FAE002208031DDB2FDC2FDD2FA001221CE02FBA
:102FBE00E12FE52F83120313E217EB2F7F308312DD
:102FCE000313E8006808E205831603132208831230
:102FDE000313E8000310680CE9006908E300831688
:102FEE000313A01FFB2FFC2FFF2F83120313E317D6
:022FFE000800C9
:10318000F0007008831203139300080083160313E2
:10319000141CCB28CC28C62808000A168A15C6207D
:1031A0000A168A15831203131308080073087204A1
:1031B000710470040319DD28DE28E0288030F3064E
:1031C000080000300A168A15FE200A168A150130FA
:1031D0000A168A15FE200A168A150800F1008312C5
:1031E000031308157108860088151D30F000F00BD8
:1031F000F728FA288312031388110800F2008312BB
:10320000031308117208860088150C30F100AF30E6
:10321000F000F00B0929F10B09298312031388111F
:103220000800F300831603138712731D1829192948
:103230001D297208940087152129700872049400D2
:103240008711730871048312031394000800831616
:1032500003178801890183160313071187100710CC
:103260008601880185018312031386018801850187
:10327000071187100710F001F101F20120300A1642
:103280008A1511210A168A150800F5007503031D19
:103290004A294B29572973087F3EF4007408F60029
:1032A00076080A168A15FE200A168A156829023041
:1032B0007506031D5C295D2968297308BF3EF4006B
:1032C0007408F60076080A168A15FE200A168A1572
:1032D0000800F401F501701C6E296F297529720828
:1032E000F4070318F50A7308F50701300310F20D0F
:1032F000F30DFF3E031D762901300310F10CF00C95
:10330000FF3E031D7D2970087104031D882989294A
:103310006B297508F1007408F0000800B2308316BC
:103320000313CF004F08AC005B08B0005A08AF0091
:103330005908AE005808AD00EA300A128A119D21E2
:103340000A168A15F301F30A02300A168A15452176
:103350000A168A15EA30F2000030F3000A168A15C0
:103360004B220A168A150800F800F401F5017008CE
:10337000F200F3017208F6007308F700781CC12907
:10338000C229C8297608F4070318F50A7708F50753
:1033900001300310F60DF70DFF3E031DC929031080
:1033A000F80C7808031DD529D629BE297508F10027
:1033B0007408F000080083120313081100300A1685
:1033C0008A15FE200A168A152C30F400D330F3003B
:1033D000F30BE829F40BE829ED2930300A168A1599
:1033E000FE200A168A157730F300F30BF529F82929
:1033F00038300A168A15FE200A168A1501300A1678
:103400008A15FE200A168A1506300A168A15FE202D
:103410000A168A150F300A168A15FE200A168A1512
:103420000800700871040319162A172A462AF501A4
:10343000F50A252A01300310F00DF10DFF3E031DA2
:103440001B2A0130F4007408F507F11F282A292AE5
:103450001A2A71087302031D2F2A70087202031CB6
:10346000322A332A392A7008F2027108031CF30346
:10347000F30201300310F10CF00CFF3E031D3A2A59
:103480000130F502031D452A462A292A7308F10056
:103490007208F0000800F701F801702A7708720737
:1034A000F5007308F4000318F40AF71F582AF40310
:1034B0007408F600760883120313FF007508840071
:1034C0000A128A1500200A168A150A168A15EE2095
:1034D0000A168A150130F7070318F80A0030F807B2
:1034E00077087207F5007308F4000318F40AF71F51
:1034F0007A2AF4037408F600760883120313FF0097
:10350000750884000A128A1500200A168A15003AE6
:10351000031D8B2A8C2A4E2A080000307005F80003
:1035200000307105F90080307205FA007F307305B4
:10353000FB007B087A0479047804031DA02AA12AE1
:10354000A92A0030F3000030F2000030F100003012
:10355000F00000307405F80000307505F900803087
:103560007605FA007F307705FB007B087A04790442
:103570007804031DBC2ABD2AC52A0030F70000309C
:10358000F6000030F5000030F40077087306031DE4
:10359000D32A76087206031DD32A75087106031D07
:1035A000D32A740870060319D62AD72AD92A0310F9
:1035B000DA2A03140800803083160313A7062B08A9
:1035C00083120313E300831603132A0883120313E1
:1035D000E20083160313290883120313E100831604
:1035E0000313280883120313E0008316031327082C
:1035F00083120313E70083160313260883120313B1
:10360000E60083160313250883120313E5008316CF
:103610000313240883120313E4000A168A11C0243A
:103620000A168A1583120313630883160313A7006F
:1036300083120313620883160313A6008312031375
:10364000610883160313A500831203136008831611
:103650000313A400080073087204710470040319B2
:10366000322B332B762BF901F90A432B0130F8006A
:103670000310F00DF10DF20DF30DF80B382B0130A6
:10368000F8007808F907F31F462B472B362B7308F1
:103690007702031D552B72087602031D552B710806
:1036A0007502031D552B70087402031C582B592BEF
:1036B000672B7008F4027108031C710FF502720881
:1036C000031C720FF6027308031C730FF70201301C
:1036D0000310F30CF20CF10CF00CFF3E031D682BF1
:1036E0000130F902031D752B762B472B7708F30069
:1036F0007608F2007508F1007408F0000800F60181
:10370000F31F832B842B8B2BF209F309F20A031985
:10371000F30AF601F60AF11F8E2B8F2B942BF0097A
:10372000F109F00A0319F10A700871040319992BC1
:103730009A2BC92BF501F50AA82B01300310F00DC7
:10374000F10DFF3E031D9E2B0130F4007408F507B8
:10375000F11FAB2BAC2B9D2B71087302031DB22BF9
:1037600070087202031CB52BB62BBC2B7008F2023A
:103770007108031CF303F30201300310F10CF00C89
:10378000FF3E031DBD2B0130F502031DC82BC92BC5
:10379000AC2B76080319CD2BCE2BD32BF209F309D2
:1037A000F20A0319F30A7308F1007208F000080026
:1037B0000030FC000030FB000030FA000030F9005F
:1037C00073087204710470040319E72BE82B352C7D
:1037D000FD01FD0AF82B0130F8000310F00DF10D8A
:1037E000F20DF30DF80BED2B0130F8007808FD0712
:1037F000F31FFB2BFC2BEB2B0130F8000310F90D12
:10380000FA0DFB0DFC0DF80BFE2B73087702031D60
:10381000132C72087602031D132C71087502031D08
:10382000132C70087402031C162C172C262C7008FD
:10383000F4027108031C710FF5027208031C720F69
:10384000F6027308031C730FF7027914013003109A
:10385000F30CF20CF10CF00CFF3E031D272C013091
:10386000FD02031D342C352CFC2B7C08F3007B0857
:10387000F2007A08F1007908F00008000530F20043
:103880000030F300831603136708F1006608F000A8
:103890000A168A1569210A168A157108FA00700835
:1038A000F900FF30F7000030F8000A128A15D7201F
:1038B0000A168A15770883120313A4007808A50056
:1038C0000030A51BFF30A600A70001300A168A159C
:1038D000C9250A168A1583120313270883160313B2
:1038E000DF0083120313260883160313DE008312FE
:1038F0000313250883160313DD0083120313240822
:1039000083160313DC00AD30CF004F08AC005F0816
:10391000B0005E08AF005D08AE005C08AD00E930A5
:103920000A128A119D210A168A150830831603137C
:10393000CF004F08F30002300A168A1545210A16F7
:103940008A15E930F2000030F3000A168A154B227E
:103950000A168A150800031083120313610D620D05
:10396000E3006308E9006908031DB72CB82CC12CDB
:103970000030E2000030E1000030E0000030DF0005
:10398000262D5F08E3006008E4006108E500620896
:10399000E6001F300310E60CE50CE40CE30CFF3EE0
:1039A000031DCA2C6308E7006708E800E117FF3031
:1039B000DF05FF30E005FF30E1050030E20596301D
:1039C000E902E91FE42CE52CFF2C6908803A973EB8
:1039D0000318EB2CEC2CED2CB82C01300310E20C6E
:1039E000E10CE00CDF0CFF3E031DEE2C0130E30088
:1039F0006308E907031DFD2CFE2CED2C162D20304D
:103A00006902031C042D052D112DB82C0130E30093
:103A10000310DF0DE00DE10DE20DE30B082D013089
:103A2000E9026908031D152D162D062D68080319D6
:103A30001A2D1B2D262DDF09E009E109E209DF0A15
:103A40000319E00A0319E10A0319E20A0800003029
:103A50007005F80000307105F90080307205FA0039
:103A60007F307305FB007B087A0479047804031D1A
:103A70003A2D3B2D432D0030F3000030F200003092
:103A8000F1000030F00000307405F80000307505DA
:103A9000F90080307605FA007F307705FB007B085F
:103AA0007A0479047804031D562D572D5F2D0030BC
:103AB000F7000030F6000030F5000030F400F31F8E
:103AC000622D632D872D0030F8000030F9000030A2
:103AD000FA008030FB007008F8027108031C710FB7
:103AE000722D732DF9027208031C720F782D792D37
:103AF000FA027308031C730F7E2D7F2DFB027B08D7
:103B0000F3007A08F2007908F1007808F000F71F56
:103B10008A2D8B2DAF2D0030F8000030F9000030D9
:103B2000FA008030FB007408F8027508031C750F5A
:103B30009A2D9B2DF9027608031C760FA02DA12D3E
:103B4000FA027708031C770FA62DA72DFB027B082E
:103B5000F7007A08F6007908F5007808F40080305C
:103B6000F3068030F70677087302031DC12D76082F
:103B70007202031DC12D75087102031DC12D740849
:103B800070020318C42DC52DC72D0310C82D0314B2
:103B9000080083120313AC002C080319D02DD12D7B
:103BA000E52DA71FD42DD52DE52D2409AE0025091F
:103BB000AF002609B0002709B100AE0A0319AF0A09
:103BC0000319B00A0319B10AED2D2708B100260820
:103BD000B0002508AF002408AE00270826042504FD
:103BE0002404031DF42DF52DFE2D0030A700003018
:103BF000A6000030A5000030A400842E9630A80056
:103C00002808AD00102E0130A8002808AD070130AB
:103C10000310B10CB00CAF0CAE0CFF3E031D082E10
:103C2000FE303105031D152E162E032E322E0130C7
:103C3000A8002808AD070130AE0700300318013096
:103C4000AF07003003180130B0070030031801300F
:103C5000B10701300310B10CB00CAF0CAE0CFF3E3D
:103C6000031D2A2EFF303105031D372E382E172E47
:103C7000442E0130AD020130A8000310AE0DAF0D8F
:103C8000B00DB10DA80B3D2EB01B472E482E4E2E69
:103C900002302D0203184D2E4E2E392E2D18512E86
:103CA000522E5A2EFF30AE05FF30AF057F30B005E3
:103CB000FF30B1050310AD0C2D08A800A901AA0121
:103CC000AB0118300310A80DA90DAA0DAB0DFF3ED6
:103CD000031D622E2808AE042908AF042A08B00488
:103CE0002B08B1042C080319762E772E7C2EA71FE3
:103CF0007A2E7B2E7C2EB1173108A7003008A60043
:103D00002F08A5002E08A40008007008F80071080C
:103D1000F9007208FA000310790D7A0DFB007B0898
:103D200083120313A5002508031D972E982EA12E9C
:103D30000030F3000030F2000030F1000030F000FD
:103D4000412F7408F8007508F9007608FA0003108E
:103D5000790D7A0DFB007B08A4002408031DB12E09
:103D6000B22EB32E982EF117FF30F005FF30F1057B
:103D70000030F205F517FF30F405FF30F50500308F
:103D8000F6050030A3000030A2000030A100003092
:103D9000A0007F30A50298302407F8007808A5021B
:103DA0001830F8007808A4000130F8000310A00DC6
:103DB000A10DA20DA30DF80BD62E76087202031DDD
:103DC000E72E75087102031DE72E74087002031CAC
:103DD000EA2EEB2EF62E7408F0027508031C750F00
:103DE000F1027608031C760AF20220140130031057
:103DF000F00DF10DF20DFF3E031DF72E0130A40270
:103E0000031D032F042FD42EA51F072F082F222FA9
:103E10002508803A973E03180E2F0F2F102F982E4B
:103E200001300310A30CA20CA10CA00CFF3E031D3B
:103E3000112F0130F8007808A507031D202F212F2E
:103E4000102F392F18302502031C272F282F342F2D
:103E5000982E0130F8000310A00DA10DA20DA30DA6
:103E6000F80B2B2F0130A5022508031D382F392F01
:103E7000292F2308F3002208F2002108F10020086E
:103E8000F00008000310720D730DF800780883121B
:103E90000313A5002508031D4E2F4F2F582F003068
:103EA000F3000030F2000030F1000030F000FF2F8E
:103EB0000310760D770DF8007808A4002408031D80
:103EC000622F632F642F4F2FF217FF30F005FF3062
:103ED000F105FF30F2050030F305F617FF30F40569
:103EE000FF30F505FF30F6050030F7050030A30080
:103EF0000030A2000030A1000030A0007F30A502F9
:103F0000A0302407F8007808A5022030F8007808CF
:103F1000A4000130F8000310A00DA10DA20DA30D07
:103F2000F80B8B2F77087302031DA02F76087202FF
:103F3000031DA02F75087102031DA02F74087002C5
:103F4000031CA32FA42FB32F7408F0027508031CC1
:103F5000750FF1027608031C760FF2027708031C36
:103F6000770FF30220140130F8000310F00DF10D6B
:103F7000F20DF30DF80BB52F0130A402031DC12F74
:103F8000C22F892FA51FC52FC62FE02F2508803AE5
:103F90009F3E0318CC2FCD2FCE2F4F2F0130031073
:103FA000A30CA20CA10CA00CFF3E031DCF2F0130CF
:103FB000F8007808A507031DDE2FDF2FCE2FF72F7F
:103FC00020302502031CE52FE62FF22F4F2F013062
:103FD000F8000310A00DA10DA20DA30DF80BE92F01
:103FE0000130A5022508031DF62FF72FE72F230820
:103FF000F3002208F2002108F1002008F000080078
:04400E00D420FF3F7C
:00000001FF
