:020000040000FA
:100000000A128A11F22F00308A000408840A82073B
:100010000034013400340A34003464340034E834E9
:100020000334103427342534643420340D340A3436
:0200300000349A
:1008EC000A128A11BC240A128A1108000A128A11EF
:1008FC0098240A128A1183160313111408000A1281
:10090C008A1198240A128A118316031311150800F0
:10091C00F00070088312031399000C1E962C972C70
:10092C00932C08008316031314199D2C9E2C982CC1
:10093C0011081F39031DA32CA42C982C0800F200BD
:10094C00B32C7208840000080A128A118E240A1231
:10095C008A110130F1007108F207720884008313C8
:10096C000008031DBA2CBB2CA72C080034308316AE
:10097C000313990098131813981618129811181538
:10098C00981018108312031398171813981218162E
:10099C0098111811981018108C12831603138C16BA
:1009AC00831203130C1208000A128A1198240A12DB
:1009BC008A118316031391150A128A1198240A12AC
:1009CC008A11831203131308F200F3017208F40066
:1009DC007308F5000A128A1198240A128A117003FE
:1009EC007104031DFA2CFB2CFF2C8316031391129C
:1009FC00022D83160313911611167508F100740855
:100A0C00F000080083160317880183160313850171
:100A1C0083120313850183160317890183160313AD
:100A2C008601831203138601831603138701831235
:100A3C00031387018316031307138801831203130F
:100A4C00880183160313890183120313890183160A
:100A5C0003130910891107300A128A1148260A1249
:100A6C008A11080028308312031394008316031391
:100A7C009101831203132008A4002108A500220869
:100A8C00A6002308A70002300310A40DA50DA60D87
:100A9C00A70DFF3E031D4A2D2708F3002608F20080
:100AAC002508F1002408F0000030F7007A30F60039
:100ABC001230F5000030F4000A128A11A4260A1232
:100ACC008A117008FF3E8316031393009401871557
:100ADC0007160800780879040319752D762DA52DB5
:100AEC00FD01FD0A842D01300310F80DF90DFF3EB8
:100AFC00031D7A2D0130FC007C08FD07F91F872DA2
:100B0C00882D792D79087B02031D8E2D78087A02A9
:100B1C00031C912D922D982D7808FA027908031C4C
:100B2C00FB03FB0201300310F90CF80CFF3E031D14
:100B3C00992D0130FD02031DA42DA52D882D7B08B8
:100B4C00F9007A08F8000800F501F6017008710444
:100B5C000319B12DB22DE92DF701F70AC02D013083
:100B6C000310F00DF10DFF3E031DB62D0130F40006
:100B7C007408F707F11FC32DC42DB52D01300310D8
:100B8C00F50DF60DFF3E031DC52D71087302031DF7
:100B9C00D12D70087202031CD42DD52DDC2D7008BC
:100BAC00F2027108031CF303F302751401300310F5
:100BBC00F10CF00CFF3E031DDD2D0130F702031D7F
:100BCC00E82DE92DC42D7608F1007508F000080019
:100BDC000A128A1108250A128A1100308312031393
:100BEC00A3000130A2008630A100A030A0000A12A0
:100BFC008A1138250A128A110A128A1176240A12CD
:100C0C008A110A128A117C240A128A110030F0000F
:100C1C00F1000A128A11DA240A128A11710883125D
:100C2C000313C5007008C4000A128A1185240A1225
:100C3C008A11153083120313AF004B30AE00BD3058
:100C4C00AD00AD0B272EAE0B272EAF0B272E2E2E65
:100C5C000B3083120313AD002D08A0004508A20031
:100C6C004408A10030300A128A110A270A128A118C
:100C7C0030300A128A11A5240A128A11072E0A1280
:100C8C008A110028F200802E831603130F128F1284
:100C9C000F13A22E831603130F168F120F13A22EEF
:100CAC00831603130F128F160F13A22E8316031322
:100CBC000F168F160F13A22E831603130F128F12FB
:100CCC000F17A22E831603130F168F120F17A22EB7
:100CDC00831603130F128F160F17A22E83160313EE
:100CEC000F168F160F17A22E831603130F128F16C3
:100CFC000F17A22E7208F000F1017108003A0319C7
:100D0C00882E7A2E7008003A03194A2E013A0319DC
:100D1C00502E033A0319562E013A03195C2E073A4A
:100D2C000319622E013A0319682E033A03196E2E29
:100D3C00013A0319742E7A2E0F1408000030FC00AF
:100D4C000030FB000030FA000030F9007308720428
:100D5C00710470040319B32EB42E012FFD01FD0A8A
:100D6C00C42E0130F8000310F00DF10DF20DF30D4F
:100D7C00F80BB92E0130F8007808FD07F31FC72EC9
:100D8C00C82EB72E0130F8000310F90DFA0DFB0D2B
:100D9C00FC0DF80BCA2E73087702031DDF2E7208A8
:100DAC007602031DDF2E71087502031DDF2E7008FD
:100DBC007402031CE22EE32EF22E7008F40271086A
:100DCC00031C710FF5027208031C720FF6027308F4
:100DDC00031C730FF702791401300310F30CF20C9F
:100DEC00F10CF00CFF3E031DF32E0130FD02031D30
:100DFC00002F012FC82E7C08F3007B08F2007A0824
:100E0C00F1007908F000080083120313AB002130C5
:100E1C00A3002308A600DB2F25302C060319172F5F
:100E2C00182F242F2C08A3002B08840023088313CD
:100E3C0080000130A3002308AB07DB2FA701013092
:100E4C00A007FF30200784000A128A1103200A121F
:100E5C008A11AC00A300A4012408003A0319372F0F
:100E6C00DB2F2308003A0319ED2F643A0319422FA4
:100E7C000D3A0319422FDB2F260884008313000838
:100E8C00A900840A0008AA000230A3002308A607C0
:100E9C00AA1F512F522F5B2F0330A3002308A70446
:100EAC00A909AA09A90A0319AA0AAC01AC0A2C08B7
:100EBC00A3002307013E84000A128A1103200A12A0
:100ECC008A11A4000A128A1103200A128A11A500A1
:100EDC0025082A02031D742F240829020318772FD2
:100EEC00782F792F832F0130A3002308AC0705300E
:100EFC002C06031D822F832F5D2F2708033903191E
:100F0C00882F892F942F2D30A3002B0884002308C1
:100F1C00831380000130A3002308AB072C08A30027
:100F2C002308A800D22F0A30F8000030F900280856
:100F3C00A3002307013E84000A128A1103200A121F
:100F4C008A11F0000A128A1103200A128A11F10088
:100F5C002A08F3002908F2000A128A11AA250A129B
:100F6C008A117108FB007008FA000A128A117025A8
:100F7C000A128A117808303E83120313A400240845
:100F8C00AC002C08A3002B088400230883138000DA
:100F9C000130A3002308AB07FF30A3002308A807E8
:100FAC00280A031DDA2FDB2F992F0130A007FF3001
:100FBC00200784000A128A1103200A128A11A30046
:100FCC002308AC002C08031DEC2FED2F122F2B083F
:100FDC00840083138001080083120313C401C5012C
:100FEC00C601C701C801C901CA01CB0183010A129C
:040FFC008A11EE2D3B
:04400E00D420FF3F7C
:00000001FF
