:020000040000FA
:060000000A128A110C280F
:10000800FE00030EF7000A08F8000A128A11A12858
:100018000A128A110F28F001F101F201F301F4012B
:10002800F50183010A128A1119280A128A115E2021
:100038000A128A1183120313051C2328242828284E
:100048000130F4000030F50005182B282C283E2834
:1000580074037504031D312832283E28F401F50184
:100068000130F2070318F30A0030F3070130FA00F1
:100078007A088607851C4128422846280130F00066
:100088000030F100851849284A281E287003710499
:10009800031D4F2850281E28F001F101FF30F207F8
:1000A8000318F30AFF30F307013086021E280A12EC
:1000B8008A110C28831603178801890183160313F4
:1000C8008601880183120313860188010330831691
:1000D800031385008B170B17831203138C118316D8
:1000E80003138C15851683120313A001A101A20125
:1000F80024300A128A1183200A128A110800F90092
:10010800831603138712791D8A288B289328831254
:100118000313220883160313940087159B28831260
:100128000313200822048316031394008711790807
:1001380083120313210494000800831203138C1DF7
:10014800A628A728B02872080A128A11B7200A120E
:100158008A11831203138C1178088A00770E8300A2
:10016800FE0E7E0E0900F600760883120313930034
:0201780008007D
:04400E00D620FF3F7A
:00000001FF
